S016000041726475696E6F416C6C546573742E7372656383
S11300000C9434000C943E000C943E000C943E007E
S11300100C943E000C943E000C943E000C943E0064
S11300200C943E000C943E000C943E000C943E0054
S11300300C943E000C943E000C943E000C943E0044
S11300400C943E000C943E000C943E000C943E0034
S11300500C943E000C943E000C943E000C943E0024
S11300600C943E000C943E0011241FBECFEFD8E048
S1130070DEBFCDBF0E9440000C9487000C940000AA
S1130080219AE0E8F0E0808181688083E1E8F0E093
S1130090808189608083109289001092880021E019
S11300A080E091E0E8E8F0E070E06FEF31E003C059
S11300B0962F01C0932F890F8F3FE1F0882369F0B9
S11300C0AFE3BCE91197F1F700C00000482F50E0FE
S11300D051834083222361F3EDCFAFE3BCE9119751
S11300E0F1F700C00000482F50E051834083232FD4
S11300F0932FE1CFAFE3BCE91197F1F700C0000003
S1130100482F50E051834083272F962FD4CFF89463
S1050110FFCF1B
S9030000FC
