:100000000C9434000C943E000C943E000C943E0082
:100010000C943E000C943E000C943E000C943E0068
:100020000C943E000C943E000C943E000C943E0058
:100030000C943E000C943E000C943E000C943E0048
:100040000C943E000C943E000C943E000C943E0038
:100050000C943E000C943E000C943E000C943E0028
:100060000C943E000C943E0011241FBECFEFD8E04C
:10007000DEBFCDBF0E9440000C9466000C940000CF
:1000800084B1866084B98FEF9FEF9093870080934F
:1000900086008FEF9FE390938900809388008FEF15
:1000A0009FEB90938B0080938A00E0E8F0E08081E2
:1000B000806A8083808182608083E1E8F0E08081D3
:1000C00088618083808181608083FFCFF894FFCF37
:00000001FF
